:020000040000FA
:1000000068070020ED040000F5040000F70400007C
:10001000F9040000FB040000FD04000000000000E3
:10002000000000000000000000000000FF040000CD
:10003000010500000000000003050000810B000026
:100040000705000007050000070500000705000080
:100050000705000007050000070500000705000070
:100060000705000007050000070500000705000060
:100070000705000007050000070500000705000050
:100080000705000007050000070500000705000040
:100090000705000007050000070500000705000030
:1000A0000705000007050000070500000705000020
:1000B0000705000007050000070500000705000010
:1000C0000705000007050000070500000705000000
:1000D00007050000070500000705000007050000F0
:1000E00007050000070500000705000007050000E0
:1000F000070500000705000007050000390D000096
:1001000007050000070500000705000007050000BF
:1001100007050000070500000705000007050000AF
:10012000070500000705000007050000070500009F
:10013000070500000705000007050000070500008F
:10040000FFFFFFFFFFFFFFFFFFFFFFFFFEFFFFFFFD
:1004100000F002F800F05AF80AA090E8000C8244BC
:100420008344AAF10107DA4501D100F04FF8AFF299
:10043000090EBAE80F0013F0010F18BFFB1A43F0C2
:10044000010318476C0F00008C0F00000A444FF0A6
:10045000000C10F8013B13F0070408BF10F8014B23
:100460001D1108BF10F8015B641E05D010F8016B68
:10047000641E01F8016BF9D113F0080F1EBF10F8CC
:10048000014BAD1C0C1B09D16D1E58BF01F801CBEF
:10049000FAD505E014F8016B01F8016B6D1EF9D572
:1004A0009142D6D370470000002300240025002687
:1004B000103A28BF78C1FBD8520728BF30C148BFC7
:1004C0000B6070471FB51FBD10B510BD00F02FF8B1
:1004D0001146FFF7F7FF00F085FC00F04DF803B47C
:1004E000FFF7F2FF03BC00F055F800000948804711
:1004F00009480047FEE7FEE7FEE7FEE7FEE7FEE706
:10050000FEE7FEE7FEE7FEE704480549034A054B20
:1005100070470000650C0000110400006803002013
:1005200068070020680300207047704770477546D1
:1005300000F02CF8AE4605006946534620F007004F
:10054000854618B020B5FFF7DFFFBDE820404FF02B
:1005500000064FF000074FF000084FF0000B21F0AD
:100560000701AC46ACE8C009ACE8C009ACE8C0097A
:10057000ACE8C0098D46704710B50446AFF3008063
:100580002046BDE81040FFF7AABF000000487047B2
:100590000403002001491820ABBEFEE7260002003C
:1005A000704700000023B3EB920F0AD09308C0EA13
:1005B000004C5B42C1F804C0C1F800C008310133EF
:1005C000F8D112F0030208BF7047524221F8020B23
:1005D0000132FBD170470000F0B54FF0000EBEEBCA
:1005E000910F16D08B0821F0030C4FF0000E04463B
:1005F0005B4200BF25686768083401330EEB25466F
:1006000006FA85F606EB274606FA87FEF2D100EBDE
:100610004C0011F0030306D05B4200BF30F9027BAF
:100620000133BE44FAD19EFBF1F01080F0BD000012
:100630000A48C06B40F000600849C86314200849AC
:1006400088601220C860002008620E2048620020E6
:100650008861C861042088627047000000800440FF
:1006600000B0034001460848425C02F01F00074BFF
:10067000186000BF0548006800F080000028F9D02D
:100680000248006980B270471813000000B00340B0
:100690002DE9F04704468946B9F1020F41D120788F
:1006A00030B101280AD002280ED0032838D125E025
:1006B00002202070607800F02BF931E002202070D9
:1006C000607800F025F92BE004F10C023221101DB6
:1006D000FFF782FFB4F90C00B4F90E10884207DA74
:1006E0002078022804D12070607800F0B1F804E08E
:1006F00003202070607800F00BF911E003202070D7
:10070000606800F0A2FD074600221F4B00F018FCB5
:10071000054600F06DFDA060607800F0F9F800BFBC
:100720002FE0207830B1012818D002281CD00328EF
:1007300026D11FE0D4E90101884207D9207828B9E1
:1007400000202070607800F0B3F806E001202070EF
:1007500000206060607800F0DBF811E0012020707C
:10076000607800F0D5F80BE000202070607800F091
:10077000CFF805E000202070607800F0C9F800BFD5
:1007800000BFBDE8F08700000000044030B504461B
:100790000D46022D2DD1207830B101280AD0022833
:1007A0000ED0032824D11DE002202070607800F0D4
:1007B000AFF81DE002202070607800F0A9F817E083
:1007C000D4E90101884207D22078022804D12070A0
:1007D000607800F03DF804E003202070607800F0BD
:1007E00097F805E003202070607800F091F800BFD2
:1007F0002DE0207830B1012816D002281AD0032825
:1008000024D11DE0606838B1207828B9002020701C
:10081000607800F04DF806E0012020700020606054
:10082000607800F075F811E001202070607800F029
:100830006FF80BE000202070607800F069F805E0A8
:1008400000202070607800F063F800BF00BF30BD6A
:10085000002828DD062826DC411E4900124A52F8ED
:1008600021104968421E5200104B53F822201143B8
:10087000421E52000C4B53F822205160411E490089
:10088000491C1A4652F821108968421E5200521C17
:10089000064B53F822201143421E5200521C024BB9
:1008A00053F82220916070470000002030130000B0
:1008B000002828DD062826DC411E4900124A52F88D
:1008C00021108968421E5200104B53F82220114318
:1008D000421E52000C4B53F822209160411E4900E9
:1008E000491C1A4652F821104968421E5200521CF7
:1008F000064B53F822201143421E5200521C024B59
:1009000053F822205160704700000020301300008F
:10091000002828DD062826DC411E4900124A52F82C
:1009200021108968421E5200104B53F822201143B7
:10093000421E52000C4B53F822209160411E490088
:10094000491C1A4652F821108968421E5200521C56
:10095000064B53F822201143421E5200521C024BF8
:1009600053F82220916070470000002030130000EF
:10097000017831B1012908D0022909D003290ED10B
:100980000AE04168491E416009E00021416006E03B
:100990004168491C416002E04168416000BF00BFFE
:1009A0007047000010B5044604EB4400194A12F8E1
:1009B00010101948FFF76CFE04EB4400154A02EBD7
:1009C000400041781548FFF763FE04EB4400114AEC
:1009D00002EB400081781248FFF75AFE04EB440016
:1009E0000C4A02EB4000C1780E48FFF751FE04EBC1
:1009F0004400084A02EB400001790B48FFF748FE2B
:100A000004EB4400034A02EB400041790748FFF73A
:100A1000BDFE10BD601300007C0200200802002013
:100A20009401002020010020AC00002038000020AC
:100A30000C48806B40F400600A49886388150A49B5
:100A400048610A48006820F0200008498039C1F850
:100A500080000846D0F8940040F02000C1F89400CF
:100A6000704700000080044000B0044080F00F4058
:100A70000448006840F0200002498839C1F8880025
:100A80007047000088F00F400448006840F02000E4
:100A900002498439C1F884007047000084F00F4097
:100AA0003248806B40F40070304988630846806BA0
:100AB00040F4006088630846806B40F4805088638F
:100AC0002B48806840F48070294988600846006996
:100AD00040F4807008610846C06840F48070C860C7
:100AE0002448C06840F480702249C8600846006904
:100AF00040F4807008610846806840F48070886027
:100B00000846C06940F48070C8611B48406B40F4DF
:100B10008070194948630846006B40F48070086390
:100B20001448006840F480701249086008468069E3
:100B300040F4807088610E48406840F480700C4931
:100B400048600E48406940F440500C4948610B48E9
:100B50009430006840F01E00C1F894000846D0F8B8
:100B6000D40040F0DD00C1F8D4007047008004409C
:100B700000B0044000C004400090044000F00F406A
:100B800010B50220FFF76EFD01B22F480068322237
:100B9000B0FBF2F302FB13022C4820F812100320E2
:100BA000FFF760FD01B2284800683222B0FBF2F383
:100BB00002FB1302264820F812100420FFF752FD12
:100BC00001B2214800683222B0FBF2F302FB1302AB
:100BD000204820F812100520FFF744FD01B21A4802
:100BE00000683222B0FBF2F302FB13021A4820F82D
:100BF00012100620FFF736FD01B2134800683222BA
:100C0000B0FBF2F302FB1302144820F812100F4855
:100C10001038FFF7ADFE0E481038FFF7A9FE0D485B
:100C20001038FFF7A5FE0C481038FFF7A1FE0B485F
:100C30001038FFF79DFE0A48FFF79AFE0248006849
:100C4000401C0149086010BDF40200208C02002005
:100C500018020020A401002030010020BC00002068
:100C6000380000204CF220500449C8814DF628106D
:100C7000C8814FF4E97008807047000000200540EB
:100C800010B51348806B40F48060114988630846B2
:100C9000406B40F48060486340F213300D490864B3
:100CA0004FF4517048640C48C07800F0F3000A49D2
:100CB000C870002008702720487002208872042025
:100CC00088702C20C8702D2000F07AF810BD00002C
:100CD0000080044000A0044000A0064010B5134866
:100CE000806B40F40050114988630846406B40F423
:100CF0000060486340F213300D4948604FF4517072
:100D000008600C48C07800F0F3000A49C870002061
:100D100008702720487002208872042088702C20D8
:100D2000C8702F2000F04CF810BD00000080044077
:100D300000D0044000B006401D4909791C49C8791B
:100D40000A2801D00D2803D101211A4A11702DE083
:100D5000662811D004DC612807D0642824D11DE066
:100D60006E280DD070281FD111E00021124A117099
:100D70000121124A117018E00021104A117014E08C
:100D800004210D4A117001210C4A11700DE003215C
:100D9000094A11700121094A117006E00121064A31
:100DA0001170064A117000E000BF00BF70470000DC
:100DB00000B0064032000020F00200203300002086
:100DC00000280DDB00BF00BF00F01F020121914091
:100DD0004209920002F1E022C2F8001100BF00BFF8
:100DE00070470000FFF724FEFFF722FCFFF748FFE3
:100DF000FFF774FFFFF754FE474800684FF47A721C
:100E0000B0FBF2F1481EB0F1807F00D31BE0481E1A
:100E10004FF0E022506150170F22002804DB130727
:100E20001C0E3E4B1C5406E013071D0E3C4B00F0FD
:100E30000F04241F1D5500BF00204FF0E0229061D9
:100E40000720106100BF322236490020FFF7AAFBBD
:100E5000322235490020FFF7A5FB3222334900201A
:100E6000FFF7A0FB322232490020FFF79BFB322222
:100E700030490020FFF796FB4DE02F48007800280E
:100E800044D0FFF701FE2D4800780C2837D2DFE868
:100E900000F0060A0E12161A1E22262A2E320020F2
:100EA000FFF780FD31E00120FFF77CFD2DE00220FF
:100EB000FFF778FD29E00320FFF774FD25E004200B
:100EC000FFF770FD21E00520FFF76CFD1DE0062017
:100ED000FFF768FD19E00720FFF764FD15E0082023
:100EE000FFF760FD11E00920FFF75CFD0DE00A202F
:100EF000FFF758FD09E00B20FFF754FD05E00C203B
:100F0000FFF750FDFFF7C0FD00BF04E0FFF7B0FDA5
:100F10000C20FFF747FDB0E70003002000E400E0ED
:100F200018ED00E08C02002018020020A40100202F
:100F300030010020BC00002033000020F00200201F
:100F40002DE9C04130B4DFF8A0C23CEA111418BF4B
:100F50003CEA131400F0EC8081EA03051CEA11144A
:100F600044EAD57418BF1CEA131500F0C780A4EB3F
:100F700005044FF0004545EAC12145EAC32341EA93
:100F8000505143EA525304F17F74994204F50034FE
:100F90004FEAC0204FEAC22208BF904200F09C8076
:100FA0004FEA13650FF24016765D4FEA134506FBD4
:100FB00005F7C7F1807706FB07F74FEAD737A7FB9E
:100FC00003687642C8F58038A7FB06CE38BFA8F183
:100FD000010807FB08E64FF0000EA6FB028CE6FBBB
:100FE00003CEDCF1000CCEF1004E38BFAEF1010EA5
:100FF000A6FB0C584FF000074FF00005E6FB0E87EC
:10100000A1FB08C6A0FB07CE16EB0E0645F10005B6
:10101000E1FB076515F1E04E7EBFA4F580345FEA81
:1010200046066D4116F1800745F100054FEA172786
:101030004FEA066647EA0567A6F1DE46B6F1805F2D
:101040004FEA15251FD9384624F0010C05EBC47171
:10105000BCF1FE6F01EB0C1102D8F0BCBDE80081C1
:1010600024425CBF01F5801E9EEAC47F02D4F0BC1E
:10107000BDE80081244238D4F0BCA1F1C041BDE8F4
:10108000004100F043B94FEAD22242EA43524FEA0C
:10109000D323A7FB02864FEAD02040EA415007FB4A
:1010A00003661EEA0E0F4FEAD12105FB026658BF08
:1010B000A6EB0056B6EB00564FEA520E4EEAC37E40
:1010C00018EB0E0E56EB530EBDD518EB02085E4121
:1010D0007F1C55F10005B6E74FF480154FF000076F
:1010E0004FF000064FF00008ADE7F0BC4FF00000F5
:1010F00001F1C04101F00041BDE8008111EA0C1F7F
:101100000CEA131500D00CE013EA0C1F00F0258048
:101110004FF00000F0BC81EA030101F00041BDE89E
:101120000081F0BCBDE8004181EA030100F0EEB8A7
:10113000F0BCBDE8004170B500F09AF8097EFC3EB5
:1011400000F007B881EA03014FF0000001F0004110
:10115000704781EA030100F0D9B8F0BCBDE8004156
:101160004FF0000021497047FFFDFBF9F7F5F4F25D
:10117000F0EEEDEBE9E8E6E4E3E1E0DEDDDBDAD832
:10118000D7D5D4D3D1D0CFCDCCCBCAC8C7C6C5C490
:10119000C2C1C0BFBEBDBCBBBAB9B8B7B6B5B4B3A7
:1011A000B2B1B0AFAEADACABAAA9A8A8A7A6A5A492
:1011B000A3A3A2A1A09F9F9E9D9C9C9B9A99999856
:1011C0009797969595949393929191908F8F8E8EF9
:1011D0008D8C8C8B8B8A8989888887878685858486
:1011E00084838382828181800000FF070000F87F72
:1011F0004FEA1153A3F58063D3F11E03A8BFD3F1C7
:10120000200C08DB4FF0004242EAC12252EA505261
:1012100032FA03F0704709420BD4102BC4BF0020F0
:10122000704703F5787CBCF1FF3F05D04FF0FF30ED
:1012300070474FF00000704770B500F019F800BF1C
:101240004992248000207047F0E7B0FA80F310FA4A
:1012500003F10AD0C3F11D0303F580634FEA415047
:101260004FEA035202EBD12170474FF00000704764
:101270000EF1020E2EF0030E5EF8046B364205D41A
:10128000012A43EB030515F5001F12D8012841EB95
:10129000010C1CF5001F0CD80ED14FEAD17C15F5BE
:1012A000001F0CEB4C0C0CF1020C08BF4CEBD37C78
:1012B00004E04FF0080C01E04FEAD37C0CEB4C0546
:1012C00026FA05F606F00706B6F1040C06D20EEB78
:1012D000860CBDE870404CF0010C6047DFE80CF074
:1012E000090B02024FF000414FF00000A1F5002170
:1012F00070BD19461046012851EB010418BFD4F502
:10130000001484BF002001F0004170BD0808A0F562
:1013100000114FEA31017047050E08090D0C060750
:101320000F04001303931A9217C585848687C4009F
:101330000400000010000000080000000800000089
:1013400010000000040000008000000000200000E9
:10135000001000000100000002000000400000003A
:101360000202020202020202020200000000000267
:101370000202020202000202020202020200020251
:10138000000002020002020002020002020200004B
:10139000020000000202000000000202000202023D
:1013A0000202000000020000000000000000000037
:1013B000D013000000000020040300004C040000D3
:1013C0000C1400000403002064040000A8040000C2
:1013D0002D80F00F40049AC0086904115904A91C1B
:1013E0008163010643F401026541C3010509657487
:1013F000C2040A644674C2030A643E74C2020A64E8
:0C1400004974C2010276410400A24A04B3
:04000005000004ED06
:00000001FF
